:020000040800F2
:10000000280E002045010008ED0E0008EF0E000844
:10001000F10E0008F30E0008F50E000800000000C5
:10002000000000000000000000000000F70E0008C3
:10003000F90E000800000000915200080B120008A1
:100040005F0100085F0100085F0100085F01000810
:100050005F0100085F0100085F0100085F01000800
:100060005F0100085F0100085F0100085F010008F0
:100070005F0100085F0100085F0100085F010008E0
:100080005F0100085F0100085F0100085F010008D0
:100090005F0100085F0100085F0100085F010008C0
:1000A0005F0100085F0100085F0100085F010008B0
:1000B0005F0100085F0100085F0100085F010008A0
:1000C0005F0100085F0100085F0100085F01000890
:1000D0005F0100085F0100085F0100085F01000880
:1000E0005F0100085F0100085F0100085F01000870
:1000F0005F0100085F0100085F0100085F01000860
:100100005F0100085F0100085F0100085F0100084F
:100110005F0100085F0100085F0100085F0100083F
:100120005F0100085F0100085F0100085F0100082F
:10013000DFF80CD005F068FD00480047C10D00084D
:10014000280E00200648804706480047FEE7FEE7E5
:10015000FEE7FEE7FEE7FEE7FEE7FEE7FEE7FEE777
:1001600011020008310100080CB500220192009232
:100170005248016841F4803101604FF4A063016886
:1001800001F4003100910199491C0191009911B9C4
:1001900001999942F3D10168890302D501210091A7
:1001A00000E000920099012930D145490A6842F0E7
:1001B00010020A600A6822F003020A600A6842F02C
:1001C00002020A604168416041684160416841F44F
:1001D00080614160416821F47C114160416841F4D3
:1001E000E8114160016841F0807101600168890196
:1001F000FCD5416821F003014160416841F00201F2
:1002000041604168C1F381010229FAD10CBDABE71D
:1002100010B52A48016841F0010101604168294A8E
:10022000114041600168284A11400160016821F4D1
:1002300080210160416821F4FE0141604FF41F01FB
:100240008160FFF7E4FF21494FF00060086010BDB6
:1002500010B51A4A506800F00C011D4B1D480029CA
:100260000ED004290ED008290ED003605168194A17
:10027000C1F30311121D515C0268CA40026010BD37
:100280000360F3E70360F1E7516801F4701153680C
:1002900003F48033022404EB914133B153689B0390
:1002A00007D50D4B59430160E0E70B4B5943016003
:1002B000DCE7074B59430160D8E70000001002401B
:1002C000002002400000FFF8FFFFF6FE08ED00E00E
:1002D00000127A000000002000093D002A4908436E
:1002E0002A490860704770B50F23C278012601784B
:1002F000002A1ED0254A126802F4E062C2F5E062CC
:10030000120AC2F10404D3404578A54082781A400D
:100310002A43120101F1E02181F80024007800F065
:100320001F018E404009800000F1E020C0F800610C
:1003300070BD01F01F0086404809800000F1E020F8
:10034000C0F8806170BD124A114001430F48001F80
:10035000016070470D4A121D002903D01168014346
:100360001160704711688143116070474FF0E021C0
:10037000042804D0086920F0040008617047086967
:1003800040F00400086170470000FA050CED00E041
:1003900080FFFF1F10B59C49884209D1012104202C
:1003A00000F07DFA0021BDE81040042000F077BA8B
:1003B0009649884209D10121082000F070FA0021F5
:1003C000BDE81040082000F06ABA9149884209D17E
:1003D0000121102000F063FA0021BDE81040102038
:1003E00000F05DBA8B49884209D10121202000F03C
:1003F00056FA0021BDE81040202000F050BA86498E
:10040000884209D10121402000F049FA0021BDE8CD
:100410001040402000F043BA8049884209D10121B0
:10042000802000F03CFA0021BDE81040802000F060
:1004300036BA7B4988420AD184150121204600F052
:100440002EFA2046BDE81040002100F028BA10BD69
:1004500010B50121084600F022FA0021BDE8104045
:10046000012000F01CBA2DE9F0410022CC7804F004
:100470000F03E40601D58C7823430C784FF00F0767
:1004800014F0FF0F4FF0010C1CD005680CFA02F4B9
:100490000E882640A64211D1960007FA06F825EAF2
:1004A000080503FA06F848EA0505CE78282E02D09A
:1004B000482E02D002E0446100E00461521C082A88
:1004C000E4D305600A88FF2A1ED94568002202F19C
:1004D00008060CFA06F40E882640A64210D19600B3
:1004E00007FA06F825EA080503FA06F848EA0505BA
:1004F000CE78282E00D14461CE78482E00D10461F8
:10050000521C082AE3D34560BDE8F0814FF6FF7125
:100510000180022181700421C170704702460020D1
:1005200092680A4200D001207047806880B270470C
:1005300002460020D2680A4200D001207047C068FD
:1005400080B270470161704741617047002A01D055
:100550000161704741617047C160704741F480326A
:1005600082618161826181698069704710B52D4B1C
:100570001A684FF68074224042EA0010084318605F
:1005800010BD2949C8617047F0B5264C002801DA32
:10059000E36900E06368C0F30346420D120185B2CF
:1005A000C0F301579540032F07D0C2020CD5032298
:1005B000B240934343F0706209E023F070626368D5
:1005C00023F07063636002E0AB4343F0706201B1FB
:1005D0002A43002801DAE261F0BD6260F0BD10B587
:1005E0008A07120F0F23934021F003040D49214481
:1005F0008C689C438C608B68904003438B6010BD7B
:100600000949DC310860704700080140000C0140D6
:10061000001001400014014000180140001C01407E
:10062000002001400000014000002042B448016861
:1006300041F0010101604168B24A11404160016826
:10064000B14A11400160016821F4802101604168D4
:1006500021F4FE0141604FF41F0181607047A849F9
:100660000A6822F480320A600A6822F480220A6052
:10067000B0F5803F07D0B0F5802F03D1086840F473
:10068000A02008607047086840F480300860704718
:100690000346002059099A4A01290AD002290AD0A2
:1006A000516A03F01F02012393400B4200D0012046
:1006B00070471168F5E7116AF3E718B5002000905C
:1006C0004FF4A0643120FFF7E3FF0099491C00912B
:1006D0000099A14201D00028F4D03120FFF7D8FFC3
:1006E00008B1012018BD002018BD854A116821F00D
:1006F000F80141EAC0001060704784490860704703
:100700007F4B5A6822F47C120843104358607047AC
:100710007E49086670477A4A516821F00301014317
:10072000516070477648406800F00C007047744A8A
:10073000516821F0F001014351607047704A5168DF
:1007400021F4E0610143516070476D4A516821F422
:10075000605141EAC00050607047694A002903D0E7
:10076000517A014351727047517A814351727047F7
:100770006649D83108607047614A516821F44041A8
:100780000143516070475E49002220310A7001F830
:100790002029012805D0042802D1052081F8200055
:1007A0007047012081F82000704759490860704760
:1007B00053490A6A02430A6270475549443908603E
:1007C000704710B54E4A516801F00C01514B002999
:1007D00027D0042927D0082927D00360516801F0C9
:1007E000F00109094C4B5C5C0168E14041605468D0
:1007F00004F4E064240A1C5D21FA04F48460546863
:1008000004F46054E40A1B5DD940C160526802F4EC
:100810004042920B404B1B1F9A5CB1FBF2F101610D
:1008200010BD0360DAE70360D8E7516801F4701186
:10083000536803F48033022404EB914133B15368CD
:100840009B0307D5354B59430160C7E7334B5943E9
:100850000160C3E72F4B59430160BFE7284A0029D5
:1008600003D051690143516170475169814351611E
:100870007047234A002903D0916901439161704771
:1008800091698143916170471D4A002903D0D16964
:100890000143D1617047D1698143D1617047184AE2
:1008A000002903D0D1680143D1607047D1688143EA
:1008B000D1607047124A002903D0116901431161C8
:1008C00070471169814311617047114940390860CF
:1008D00070470E49C86470470949C8717047084895
:1008E000416A41F080714162704701460020044A2C
:1008F00092680A4200D0012070470149887270470F
:10090000001002400000FFF8FFFFF6FE0000424228
:100910008004424200127A001800002000093D00C5
:1009200010B5E14988420AD101218C032046FFF726
:10093000B6FF2046BDE810400021FFF7B0BFDB49FD
:1009400088420AD101214C042046FFF7B3FF20461C
:10095000BDE810400021FFF7ADBFD54988420AD15C
:1009600001218C042046FFF7A5FF2046BDE810407A
:100970000021FFF79FBFCF4988420AD10121CC0453
:100980002046FFF797FF2046BDE810400021FFF703
:1009900091BFC94988420AD101210C052046FFF7C1
:1009A00089FF2046BDE810400021FFF783BF10BD3E
:1009B00030B585B004460D46208A4CF6FF710840DC
:1009C000E98801432182A0894EF6F3110840A988E5
:1009D0002A8911436A8902431143A181A08A4FF6F3
:1009E000FF410840A9890143A1826846FFF7E9FE5B
:1009F000AD48844201D1039800E00298A18909041E
:100A000008D500EBC00101EB001029684900B0FBDC
:100A1000F1F007E000EBC00101EB0010296889004C
:100A2000B0FBF1F06422B0FBF2F109010B096FF0A9
:100A300018056B4300EB8300A3891D044FF03203BC
:100A400007D503EBC000B0FBF2F000F0070008434D
:100A500006E003EB0010B0FBF2F000F00F000843DB
:100A6000208105B030BD4FF4165101600021818016
:100A7000C18001810C2242818181704710B5038AB7
:100A80004FF2FF0213400A884C8822438C88C988A1
:100A90000C4322431A43028210BD00210180418091
:100AA0008180C1807047002904D0818941F40051C0
:100AB00081817047818921F400518181704710B58F
:100AC00040F66A13C1F3421301F01F040121A14053
:100AD000012B07D0022B07D014303AB102680A4329
:100AE000026010BD0C30F8E71030F6E702688A4368
:100AF000026010BD002A03D0828A0A4382827047B6
:100B0000828A8A4382827047028A22F00F0202821E
:100B1000028A0A4302827047828922F4006282813B
:100B200082890A4382817047002904D0818941F07B
:100B3000020181817047818921F002018181704722
:100B4000028A22F020020282028A0A43028270474D
:100B5000002904D0018A41F4804101827047018A52
:100B600021F4804101827047C1F308018180704700
:100B70008088C0F308007047818941F001018181BC
:100B80007047028BD2B20283028B42EA01210183B9
:100B90007047028B02F47F420283028B0A43028376
:100BA0007047002904D0818A41F02001818270477A
:100BB000818A21F0200181827047002904D0818A36
:100BC00041F0100181827047818A21F010018182F9
:100BD0007047002904D0818A41F008018182704762
:100BE000818A21F0080181827047002904D081891F
:100BF00041F40041818170478189C1F30E018181F7
:100C00007047002904D0818A41F4006181827047D5
:100C1000818A21F4006181827047828A22F0040275
:100C20008282828A0A4382827047002904D0818AA4
:100C300041F0020181827047818A21F002018182A4
:100C400070470246002012880A4200D001207047F7
:100C50008A05C9430180704770B5002440F66A12C6
:100C6000C1F3421301F01F05012606FA05F2012B1C
:100C70000CD0022B0DD0838A1340090A8E400088C5
:100C800030400BB100B10124204670BD8389134070
:100C9000F3E7038A1340F0E740F66A120A0A0121DB
:100CA0009140C94301807047003801400044004032
:100CB00000480040004C0040005000404C4D4D4F5B
:100CC0004D4C6E140121284600F00FFA012809D17D
:100CD0004AA005F01BF8206803F055FB10B94BA0A3
:100CE00005F014F83146384600F0FFF9012809D123
:100CF0004BA005F00BF8206803F097FB10B94CA04F
:100D000005F004F81420002103F09DFADAE74D4DB8
:100D100020244FF4FA772E1F2C60384600F0B2FDE5
:100D20003460384600F0AEFDF6E747A004F0EEBFB1
:100D30004AA004F0EBBF7CB504F088FA0446012019
:100D400000902D484FF47A7300224949083000F092
:100D500043FC10B947A004F0D9FF002002460090E0
:100D6000254841F288334849083000F035FC10B975
:100D700046A004F0CBFF05204FF40075CDE90050EC
:100D80000023474A47A11C4800F084FA10B948A044
:100D900004F0BCFF0620CDE90050174800234A4A62
:100DA0004AA1001D00F076FA10B941A004F0AEFF90
:100DB000204604F04FFABDE87C40002000F07FBAE6
:100DC0001CB500F0FDF900F065FD0420C101CDE97E
:100DD000001009480023404A40A1001F00F05AFAC1
:100DE00010B14FF0FF301CBD00F056FDFEE70000D3
:100DF00000080140001001402C000020B9D2C6F0CC
:100E00004C4544C8CECEF1A3A10A0000B9D2C6F029
:100E10004C4544C8CECEF1B3C9B9A6A3A10A00007F
:100E2000BBD6B8B44C4544C8CECEF1A3A10A00004D
:100E3000BBD6B8B44C4544C8CECEF1B3C9B9A6A30D
:100E4000A10A0000140C014054696D6572325F43C1
:100E5000616C6C6261636B0A0000000054696D652F
:100E600072315F43616C6C6261636B0A0000000069
:100E7000310D0008B4B4BDA8B6A8CAB1C6F731B3E5
:100E8000C9B9A6210D0A00002B0D0008B4B4BDA8F5
:100E9000B6A8CAB1C6F732B3C9B9A6210D0A000077
:100EA0000F0D00084C45445F5461736B0000000057
:100EB000B4B4BDA84C45445F5461736BC8CECEF149
:100EC000B3C9B9A6210D0A00BD0C00084B45595FF6
:100ED0005461736B00000000370D000841707054BE
:100EE00061736B4372656174650000007047FEE7D3
:100EF000FEE7FEE7FEE770477047000038B50121C6
:100F00000820FFF7B6FC2020ADF8000010208DF877
:100F1000030003208DF802000F4C69462046FFF7BE
:100F2000A2FA0121ADF8001069462046FFF79BFAAE
:100F30000221ADF8001069462046FFF794FA2021FF
:100F40002046FFF7FFFA01212046FFF7FBFA0221B6
:100F50002046FFF7F7FA38BD000C014008B54FF402
:100F60004070FFF7BBF925208DF8000004208DF8B4
:100F7000010000208DF8020001208DF80300684672
:100F8000FFF7B1F908BD10B586B001210420FFF7C5
:100F900070FC01218803FFF76CFC4FF40070ADF882
:100FA000140018208DF8170003208DF81600404C0F
:100FB00005A92046FFF757FA2115ADF814100421B2
:100FC0008DF8171005A92046FFF74DFA4FF4E130D0
:100FD00001900020ADF80800ADF80A00ADF80C0053
:100FE000ADF810000820ADF80E00324C01A92046E3
:100FF000FFF7DEFCFFF7B2FF012240F22551204649
:10100000FFF75DFD01212046FFF74DFD06B010BD45
:1010100010B504462046FFF7A7FD80212046FFF7C4
:1010200010FE0028F9D010BD2DE9F04107460D460D
:101030001646002405E0295D3846FFF7E9FF641CE9
:10104000E4B2B442F7D340213846FFF7FAFD002856
:10105000F9D0BDE8F08170B506460D460024304653
:10106000295DFFF7D5FF641C285D0028F7D14021DA
:101070003046FFF7E6FD0028F9D070BD70B5054693
:10108000080ACCB201462846FFF76EFD80212846AB
:10109000FFF7D7FD0028F9D021462846FFF764FD69
:1010A00080212846FFF7CDFD0028F9D070BD000053
:1010B000000801400038014038B501211420FFF735
:1010C000D8FB0120ADF8000004248DF803406946E8
:1010D0000F48FFF7C8F9E002ADF800008DF80340B3
:1010E00069460C48FFF7BFF938BD70B504460D4698
:1010F00029462046FFF712FA012801D0002070BDD2
:1011000029462046FFF70AFA0128F9D0012070BDD0
:1011100000080140001001401B491C4801601C4AA6
:101120001C4B12681B681A44511A4160704700201A
:10113000704770B5002503F0D1F8046903F0CEF8CC
:10114000406904EB8006FFF7F2FF04460BE0A807B6
:1011500003D1214610A004F0D9FD11A0216804F0AC
:10116000D5FD6D1C241DB442F1D3BDE870400EA026
:1011700004F0CCBD01460DA004F0C8FD04F064F8F5
:10118000FFF7D7FFFEE70000280E002040000020F8
:10119000480000204C0000200D0A253038783A0025
:1011A00025303878200000000D0A0000736F635F5F
:1011B0006572725F70726F63202564200D0A0000F3
:1011C00010B5FFF7A9FF4FF44070FFF787F82148EB
:1011D0004FF47A710068B0FBF1F0B0F1807F0CD26F
:1011E00020F07F414FF0E020491E41611A4AF02172
:1011F00011700021816107210161FFF77FFEFFF778
:10120000C2FEBDE81040FFF757BF10B502F08BFEDD
:1012100003F00EFDBDE8104002F090BE70B504462C
:101220000E4DE1B22846FFF79FFC80212846FFF7CC
:1012300008FD0028F9D0204670BD10B5074C2021CC
:101240002046FFF7FEFC0028F9D02046BDE81040FC
:10125000FFF78EBC0000002023ED00E000380140C5
:101260004FF47A7070470020704710B586B00024A4
:1012700005940124CDE903149B08029300230093F5
:1012800001930146202305A802F0CAFF0028FFD1E0
:1012900006B010BD70B586B01D46DDE90A430126D3
:1012A000CDE90326A408029400240094DBB22A4668
:1012B000019402F0B5FF0028FFD106B070BD0020F8
:1012C00003F092BA10B503F009F8406810BD30B5CC
:1012D0000121F94D01242A6804FA01F3134205D1D2
:1012E0008C4014432C600160002030BD491E002951
:1012F000F2DA6FF0150030BD022805D201218140DD
:10130000ED4802688A430260704770B505460C4696
:1013100002F0E4FF2246294603F071FB0028FFD1CA
:1013200070BD38B504460020009002F0D7FF6A4631
:10133000214603F079FB009838BD002801D001F068
:101340009BBA704710B500280CD00DDB40F0004070
:1013500001F063FA0446D94B2146019A186801F05E
:101360002CFA04E0002010BD01F057FA0446204694
:1013700010BD70B50646002E0FD02820FFF7E2FF03
:1013800004466CB1CEA1204601F007FE054655B1DA
:101390002046FFF7D2FF284670BD6FF0150070BDE4
:1013A0006FF00B0070BD3460002070BD10B50446B6
:1013B000002C07D0206801F021FE2068FFF7BDFF58
:1013C0000020206010BD10B50446002C13D0481C2E
:1013D00014D00846002103F051FC246802460B4655
:1013E000204601F0D2FEA0F54071853900D10020E1
:1013F0000028FFD110BD6FF0150010BD4FF0FF3277
:101400001346206801F0C1FEEDE710B500280AD0B0
:10141000006801F03BFFA0F54071853900D1002044
:101420000028FFD110BD6FF0150010BD002803D0BB
:10143000006818B1012070470020704700207047F5
:1014400070B506460D46002E10D02420FFF77AFF17
:10145000044674B12A469AA1204602F03EFB054696
:1014600055B12046FFF769FF284670BD6FF01500A3
:1014700070BD6FF00B0070BD3460002070BD10B502
:101480000446002C07D0206802F029FB2068FFF7F3
:1014900054FF0020206010BD10B50446002C0ED073
:1014A000481C0FD00846002103F0E8FB24680246E0
:1014B0000B46204602F0FAFB0028FFD110BD6FF06A
:1014C000150010BD4FF0FF321346206802F0EEFB0E
:1014D000F2E7002802D0006802F0DCBB7047002869
:1014E00003D0006818B10120704700207047002029
:1014F0007047002802D0006802F0D2BB70472DE987
:10150000F84306460F4690461D46002E14D09FB164
:101510004C20FFF717FF04468CB143463A4668A1BA
:101520002046009500F00FFA05465DB12046FFF712
:1015300004FF2846BDE8F8836FF01500FAE76FF066
:101540000B00F7E734600020F4E710B50446002CE8
:1015500007D0206800F00BFA2068FFF7EEFE0020AD
:10156000206010BD10B5002806D029B1006800F039
:1015700018FB0028FFD110BD6FF0150010BD7CB521
:101580000446084615461E46002C0DD0002103F0E7
:1015900075FBCDE90056246802460B46204600F054
:1015A00008FB0028FFD17CBD6FF015007CBD002832
:1015B00003D0006818B10120704700207047002058
:1015C000704700B501460846FFF7F1FF10B1086803
:1015D000006900BD002000BD2DE9F04F87B007462F
:1015E0001098894616469A46002F1AD04FF00108E7
:1015F0004FEAEA7BC0B15046594603F03FFB044630
:101600000D465046594603F039FB8DE873014A46B2
:101610002BA1384603F00DFC0028FFD107B0BDE830
:10162000F08F6FF01500F9E75046594603F026FB9E
:10163000CDE904680022CDE90001029203924A46F6
:101640001FA1384603F0F5FBE6E72DE9F04F87B020
:101650000746DDE91008894616469A46002F16D03F
:101660004FEAEA7BB0B15046594603F007FB044607
:101670000D465046594603F001FB8DE873014A467A
:101680000FA1384603F0D5FB0028C7D1C6E76FF09D
:101690001500C3E75046594603F0F0FACDE9046857
:1016A0000022CDE90001029203924A4604A1384685
:1016B00003F0BFFBE8E7000050000020A00000207E
:1016C000414F530010B50446002C04D0206803F0AD
:1016D000DBFB0020206010BD10B5002805D000689D
:1016E00003F02EFB0028FFD110BD6FF0150010BDD8
:1016F00010B5002805D0006803F0D6FB0028FFD104
:1017000010BD6FF0150010BD2DE9FC4107460E46D7
:10171000002F17D04FEAE6783046414603F0AEFA84
:1017200004460D463046414603F0A8FACDE900458F
:101730003C6802460B46204603F0C6FB0028FFD15A
:10174000BDE8FC816FF01500FAE770B50446002C87
:101750000CD00DDB44F0004001F05FF805464F4827
:101760002946039A006801F028F805E0002070BDC2
:10177000204601F052F805461DB12146284604F0E6
:1017800030F8284670BD70B500FB01F4002C0CD079
:101790000DDB44F0004001F040F805463F48294683
:1017A000039A006801F009F805E0002070BD2046AA
:1017B00001F033F805461DB12146284604F011F822
:1017C000284670BD10B500290BDB41F0004101F047
:1017D00058F80446314B2146019A186800F0EDFF95
:1017E00002E001F04EF80446204610BD0A460146CC
:1017F0002A48006800F0E1BF70B503F02EFA284ACD
:101800000023A0FB024501FB025100FB031120460F
:1018100070BD03F022BAFEB505460C46FFF7F9FF8E
:1018200075B3002C2CDD4FF47A72002303F0C5FD54
:10183000164602902146284603F0D3FF02A8002056
:1018400000BF034617A22146284603F007FE28469C
:1018500003F0D2FF201A401E002811DD334600207D
:101860000090019013A20821684604F05FFA284610
:1018700003F0C2FF221A521E6946284603F0C3FF36
:101880002846FEBD10B5C11703F0F8F9BDE81040B9
:1018900002F0D9BC02F004BB02F030BBA000002073
:1018A00040420F00256D2D25642025483A254D3AEC
:1018B000255300002E253033640000002DE9F84345
:1018C0001546DDE90928089E04461F46002C2CD049
:1018D0006DB371B376B377B3246064602561002083
:1018E0006063A0632663A160207384F8482003F03E
:1018F000ADFC0146F94A04F14000536843600260C0
:10190000536818605060084603F0A4FC042060731C
:1019100043463A46294604F11400009601F00EFEB3
:10192000606AE0630020BDE8F8830620FBE706203C
:10193000F9E701E002E003E00620F4E70520F2E722
:1019400040F2BD20EFE73EB5069D0124CDE90054ED
:101950000294FFF7B3FF3EBDFEB5089C00250126AB
:10196000CDE9016500936343FFF7A8FFFEBD70B5A5
:101970000446002C0CD003F069FC05460020D84931
:10198000097839B1284603F065FC4FF47A7070BDD0
:10199000062070BD617B042904D0284603F05AFC60
:1019A000082070BD94F84810012904D0284603F09F
:1019B00051FC092070BD2646607303E0306818387A
:1019C00001F029FD304600F0C3F90028F6D0D4E933
:1019D00010010860D4E91010486004F1140001F00F
:1019E000A5FD284603F036FC01F0DDFE002070BDA9
:1019F0002DE9FE430646884615461F46002E21D097
:101A000015B34C2000F009FF044620001FD02846E3
:101A100000F003FF2061E0B10222CDE90072012154
:101A2000029102462B4641462046FFF747FF0546F6
:101A3000A5B1206900F020FF204600F01DFF2846D8
:101A4000BDE8FE830620FBE740F2BD20F8E76920F1
:101A5000F6E7204600F010FF6920F1E7346000202F
:101A6000EEE770B50446002C0CD003F0EFFB054602
:101A700000209B49097839B1284603F0EBFB4FF46D
:101A80007A7070BD062070BD617B042904D02846A1
:101A900003F0E0FB082070BD94F84810022904D040
:101AA000284603F0D7FB092070BD2646607303E08B
:101AB0003068183801F0AFFC304600F049F90028D2
:101AC000F6D0D4E910010860D4E91010486004F1A0
:101AD000140001F02BFD284603F0BCFB01F063FE6F
:101AE000206900F0C9FE204600F0C6FE002070BD4F
:101AF0002DE9F04104460F46154603F0A7FB0646C4
:101B0000607B042805D0304603F0A4FB0820BDE824
:101B1000F081206BA84205D2304603F09BFB40F2D7
:101B2000BF20F4E78DB1204600F012F938B32A4601
:101B3000394604F1140001F00CFD054675B130463C
:101B400003F088FB6A2D05D006E0304603F082FBE7
:101B50000520DCE740F2BE252846D8E7606B401C34
:101B60006063A16B814200D2A063E16B606A814235
:101B700000D9E063304603F06DFB0020C7E724681E
:101B8000183C2A463946E06C03F012FE25652046D3
:101B900001F0F8FB304603F05DFB01F004FE00208D
:101BA000B5E7002801D011B1A2E706207047062052
:101BB00070472DE9F05F0746DDE90AB614461D4679
:101BC000002F15D0BBF1000F14D0AEB103F03EFBD7
:101BD00080464FF000094248007878B154EA050089
:101BE0000CD0404603F036FB4FF47A70BDE8F09F0E
:101BF0000620FBE70620F9E70620F7E7787B0428B4
:101C000004D0404603F026FB0820EFE707F114005C
:101C1000824601F01CFD60B154EA050016D031483F
:101C20000078D8B1C6F80090404603F013FBC820F6
:101C3000DCE732465946504601F013FD786B401EF2
:101C40007863404603F006FB0020CFE7C6F800901B
:101C5000404603F0FFFA4FF4C870C7E7DFF888A0EA
:101C6000DAF80010C1F84CB022462B46384601F095
:101C7000B0FB404603F0EEFA01F095FD03F0E6FA02
:101C80000546DAF8000001F0FEFB044634B1C6F860
:101C90000090284603F0DEFA2046A7E7DAF80000B5
:101CA000006D3060F5E770B50446002C0CD003F0F1
:101CB000CDFA054600260A48007838B1284603F0D8
:101CC000C9FA4FF47A7070BD062070BD607B04289D
:101CD0000CD0284603F0BEFA082070BDD8020020C0
:101CE000600000205F0000206800002004F1140064
:101CF00001F01CFC6663A663606AE063284603F09B
:101D0000A9FA0020E9E770B504460D46002C09D079
:101D100055B103F09BFA617B042907D003F09AFACE
:101D20000820DAE70620D8E70620D6E7616A2961AD
:101D3000E16B6961D4E90521891A2960216B696029
:101D4000616BA960A16BE96003F084FA0020C4E72D
:101D50000168814201D101207047002070470000D6
:101D600088B04FF0FF352A461346244801F09EFF05
:101D700030B3162222A1682000F06AF820E0012189
:101D800000E0002111B103F065FAECE7143CD4E95E
:101D900005121160D4E90521516003F05BFA1C22A1
:101DA000214601A803F004FD002401AE05E006EB86
:101DB0008400406800F060FD641C0198A042F6D8E1
:101DC00003F044FA1A490C688C42DAD1D7E700B51F
:101DD00087B00120AFF27701CDE904108022154BC6
:101DE000CDE90232002100910A460191062312A199
:101DF000164802F0B3F907B000BD000088070020C4
:101E00002E2E5C2E2E5C616C696F735C6B65726E3E
:101E1000656C5C7268696E6F5C636F72655C6B5F4A
:101E200064796E5F6D656D5F70726F632E63000025
:101E3000980000202808002064796E5F6D656D5F52
:101E400070726F635F7461736B000000B0070020F5
:101E500002490968002900D0084770473C0000206B
:101E6000064C03F0F3F9D4E90012491C42F10002D8
:101E7000C4E9001203F0EEF9F3E70000700000205F
:101E80000021002802D0020C02D003E0202114E03F
:101E900000041021020E02D100020831C9B2020F63
:101EA00002D10001091DC9B2820F02D18000891C34
:101EB000C9B2002801DB491CC9B2C1F120000628C3
:101EC00001D200207047132802D94FF0FF3070472D
:101ED000801F704770B505460C46E06820F007008B
:101EE000FFF7CEFF0F280ED20021216105EB800104
:101EF000CA6F6261CA6F02B11461CC670122A96F17
:101F000082401143A96770BD70B505460C46E06874
:101F100020F00700FFF7B4FF0F2817D2616909B15D
:101F200022690A61216909B162694A6105EB80028F
:101F3000D16FA14207D16169D16721B90122A96F8F
:101F400082409143A96700202061606170BD026BEF
:101F50008A4202D9521A026301E000220263826BB4
:101F600011448163704710B50446002C10D000293D
:101F70000ED0E06A00F067FD28B140F23D12FEA1EC
:101F80000120FFF765FF2046BDE810402021DEE775
:101F900010BD2DE9F04106460C46002C76D0002EEF
:101FA00074D003F053F907460025FD48007830B19E
:101FB00040F20E22F0A14FF47A70FFF749FF384645
:101FC00003F048F94FF0FF321346304601F0DDF8D8
:101FD000F16A71B18868A0420BD84868A04208D95C
:101FE00021463046FFF7BFFF3046BDE8F04101F023
:101FF0004DB9103C4FF0AB372068B8420BD130469A
:1020000001F044F9E7A003F081FE4FF40872DAA171
:102010000120FFF71DFF20684FF0FE3840450BD030
:10202000304601F033F9E9A003F070FE40F22522BA
:10203000D1A10120FFF70CFF27606560E06840F048
:102040000101E16021F0070110313046FFF77FFF09
:10205000E06820F0070005191035287BC0070AD07A
:1020600029463046FFF750FFE868E16820F0070096
:1020700010300844E060207B80071DD5A5682868E3
:10208000B8420DD0304601F001F900E038E0D8A0A8
:1020900003F03CFE4FF40F72B7A10120FFF7D8FE0A
:1020A00029463046FFF730FFE068E96820F0070076
:1020B00010300844E8602C4621463046FFF70AFFFE
:1020C000E06820F00700051910352868B8420DD0E7
:1020D00040450BD0304601F0D9F8C5A003F016FEFC
:1020E0004FF41372A4A10120FFF7B2FEAC60E868C0
:1020F00040F00200E8603046BDE8F04101F0C6B8AB
:10210000BDE8F08130B5002383600822C2604FF043
:10211000FE34046043600144103900F118028D1A46
:10212000103DD560536113618A600222CA600C6061
:102130004B6000F110025360116030BD2DE9F04199
:102140000546002D0CD069B1C81D20F00706701A95
:10215000101A20F007040CB1582C05D26420CFE7E8
:102160000620CDE70620CBE72146304603F039FBB9
:1021700003F06CF8804600278948007830B140F2BF
:1021800003127DA14FF47A70FFF762FE404603F020
:1021900061F84FF0FF321346284600F0F6FF214663
:1021A0003046FFF7AFFFC16821F007010C1810346B
:1021B0001030A96A4160A8624FF0FE30206067606D
:1021C000E068296B20F00700103008442863284697
:1021D00001F05CF804F110012846FFF7DAFE002058
:1021E0008EE710B50446A06B884202D9401AA0635E
:1021F00001E00020A063206B08442063616B8842EB
:1022000000D96063002A09D01046FFF739FE411C4F
:1022100004D004EB8000C16B491CC16310BD491C94
:102220004FF0FF33826F8B401A400021002A03D009
:1022300013041B0C02D003E0202115E0120C102126
:1022400012F0FF0F02D1120A0831C9B2130702D1EE
:102250001209091DC9B2930702D19208891CC9B29B
:10226000D20701D1491CC9B20F2903DA00EB810062
:10227000C06F70470020704738B50446002C06D068
:102280006946E06A00F0BDFB18B1002038BD0020AF
:1022900038BD002220212046FFF7A3FF009838BD5B
:1022A0002DE9F04706460C46A046002E29D054B32F
:1022B00002F0CCFF054600273948007830B140F2E3
:1022C0009F122DA14FF47A70FFF7C2FD284602F04D
:1022D000C1FF4FF0FF321346304600F056FFF06A60
:1022E00098B1202C11D8006978B121463046FFF70B
:1022F000C3FF05464DB1304600F0C8FF2846BDE893
:10230000F0870020FBE70020F9E74FF00009E41D0B
:1023100024F00705202D00D220252846FFF7B0FD28
:102320008246401C26D051463046FFF778FF0446CF
:1023300020000CD106EB8A00C46F05E0E06820F0B5
:102340000700A84202D26469002CF7D194B121465B
:102350003046FFF7D9FDE26822F007010819103076
:1023600005F13003994265D34B1B103B02F002018B
:1023700029434DE076E000002E2E5C2E2E5C616C31
:10238000696F735C6B65726E656C5C7268696E6FA9
:102390005C636F72655C6B5F6D6D2E6300000000A7
:1023A000600000205741524E494E472121206D6563
:1023B0006D6F7279206D6179626520646F75626CF2
:1023C00065206672656521210D0A00005741524E55
:1023D000494E472C6D656D6F7279206D617962652C
:1023E00020636F727275707421210D0A0000000065
:1023F0005741524E494E472C6D656D6F7279206F73
:102400007665727772697474656E21210D0A000019
:10241000E16021F00701214410318C6043F001029A
:10242000CA604FF0AB320A604F6081603046FFF700
:1024300051FD03E0C16821F00201C160E06820F0B5
:102440000100E0604FF0FE312160676004F1100987
:10245000B9F1000F06D020F0070110314246304696
:10246000FFF7BFFE304600F011FF484647E7F8B5DA
:102470000746002F10D089B1C81D20F00704601A4C
:10248000101A20F007062EB1B6F5006F02D3B6F58C
:10249000002F05D96420F8BD0620F8BD0620F8BD40
:1024A000B821204603F09DF9FEA1204600F075FDFD
:1024B000A6F1B80020F0070104F1B800FFF722FEF2
:1024C00000F11001A162C16821F007010D1810355B
:1024D0003C604FF0FE30286000276F6005F110016E
:1024E0002046FFF756FDE86820F00700A063E86883
:1024F00020F00700301A20636063E7624FF48561C3
:102500002046FFF7CDFE054685B14FF480662023B7
:1025100005F12802E6A12846009600F027FA38B116
:1025200029462046FFF735FD206B60630020F8BD8B
:10253000E56231462046FFF70AFDF5E72DE9F04157
:10254000DF4DE048D5E90012FFF791FF0124DD4E91
:10255000DD4F08E005EBC40055F8341042683068E0
:10256000FFF7ECFD641C38688442F3D3C8E510B56E
:102570000446204600F042FDB821204603F031F920
:10258000002010BD2DE9F84F8146884615464FF0D2
:10259000000BB8F1000F29D08DB3009502F056FE64
:1025A0000446DA46C948007838B14FF41B72AFF2DE
:1025B00038214FF47A70FFF74BFC204602F04AFEB8
:1025C0004FF0FF321346484600F0DFFDD9F82C00EB
:1025D00080B3816841452ED8406840452BD9202DD5
:1025E00014D84446484600F051FE21E025B1294662
:1025F0004846BDE8F84F53E60020BDE8F88FFFE7F6
:1026000041464846FFF7C5FC0020F6E7484600F083
:102610003DFE29464846FFF743FE044644B12022CA
:102620004146204603F0C4F841464846FFF79BFC6C
:102630002046E2E7FFE7A8F11004E06820F0070772
:102640003E191036ED1D25F00705202D00D220255E
:10265000BD423DD807F110014846FFF778FC307BBA
:10266000C0070AD031464846FFF74EFCF06820F01C
:102670000700074410370644103605F13000874242
:102680001BD37A1B103A207B00F002002843E06045
:1026900020F00700011910318C6042F00100C86081
:1026A0004FF0AB300860C1F804A0B160F06840F0B2
:1026B0000200F0604846FFF70DFCE068009A20F049
:1026C000070110314846FFF78CFD04F1100B4DE077
:1026D000F068C1074AD020F00701C8191030A8429D
:1026E00044D307F110014846FFF731FC3146484614
:1026F000FFF70AFCF068E16820F00700103008449A
:10270000E06020F00700204410308460C16821F0B0
:102710000201C160E16805F1300321F007029A422D
:102720001AD3521B103A01F002012943E16021F053
:102730000701214410318C6042F00102CA604FF061
:10274000AB320A60C1F804A08160C26842F00202A4
:10275000C2604846FFF7BEFBE068009A20F0070120
:1027600010314846FFF73DFD04F1100BBBF1000F9F
:1027700007D04FF0FE302060484600F087FD5846F5
:102780003BE7484600F082FD29464846FFF788FDB2
:10279000064686B1E06820F00700A84200D805464A
:1027A0002A464146304603F003F841464846FFF7C3
:1027B000F0FB304621E700201FE72DE9F0410546F8
:1027C0000C461646002D27D0002C25D0E96A29B1E9
:1027D0008868A04202D84868A0421DD802F036FDA1
:1027E00007463A48007838B14FF43D72AFF278416D
:1027F0004FF47A70FFF72CFB384602F02BFD4FF0B8
:10280000FF321346284600F0C0FC44F80C6C284602
:10281000BDE8F04100F03ABD72E470B500F000454B
:1028200020F00041002906D0264E3068FFF738FD21
:1028300004462CB118E026A003F068FA002070BD11
:102840002AA003F063FA3148016809B1204670BD3F
:1028500001210160002000F0EFF94FF44672AFF261
:10286000E8416920FFF7F4FA25B92146039A306858
:10287000FFF7A3FF204670BD014612480068FFF72E
:1028800088BB2DE9F04101F0004621F000450D4FD5
:1028900001462A463868FFF775FE0446C6BB214646
:1028A000059A36E06D6D5F6D757465780000000007
:1028B00066697865645F6D6D5F626C6B0000000037
:1028C00040000020A0000020380000206000002010
:1028D0005741524E494E472C206D616C6C6F6320FE
:1028E00073697A65203D20300D0A00005741524E31
:1028F000494E472C206D616C6C6F63206661696C7A
:102900006564212121210D0A0000000054000020EF
:1029100002E03868FFF751FFA4B99DB10AA003F0A7
:10292000F5F91148416809B1204618E401214160D8
:10293000002000F081F940F25232AFF2C451012080
:10294000FFF786FA20460AE45741524E494E472C7B
:10295000207265616C6C6F63206661696C656421CF
:102960002121210D0A000000540000202DE9F04132
:1029700005460698002D08D049B152B1B0EB430F7F
:1029800009D240F29510BDE8F0810620FBE7062051
:10299000F9E70620F7E712F0030F01D00720F2E76E
:1029A00013F0030F01D00720EDE710F0030F01D063
:1029B0000720E8E7171800261046C41803E0761C25
:1029C00004602046C418BC42F9D3BC4200D1761C36
:1029D000002404602960AA606F606E612E61EB6064
:1029E000AA6102F033FC01462448203542686A603F
:1029F0002860426815604560084602F02BFC002004
:102A0000C1E770B504460D46002C10D08DB104F11D
:102A10001C0602F01BFC3060206960B1A0692860D0
:102A20000068A0612069401E2061002406E00620A5
:102A300070BD062070BD002028606924306802F057
:102A400009FC204670BD70B504460D46002C11D01F
:102A500095B104F11C0602F0F9FB3060A069286012
:102A6000A5612069401C20613046006802F0F2FB3D
:102A7000002070BD062070BD062070BDB802002089
:102A800008B58BA003F042F999480068036B826B8C
:102A9000406BD118081A009096A003F037F908BDD2
:102AA00010B50446002C4FD021469CA003F02EF90F
:102AB000207BC0070ED02068B0F1AB3F03D098A0B8
:102AC00003F024F902E097A003F020F996A003F0A8
:102AD0001DF90DE02068B0F1FE3F03D090A003F097
:102AE00015F902E08FA003F011F991A003F00EF99F
:102AF000E068C10805D020F007018FA003F006F9B7
:102B000002E08FA003F002F990A0216803F0FEF824
:102B100090A0616803F0FAF8207B800704D590A0AC
:102B2000A16803F0F3F802E091A003F0EFF8207B36
:102B3000C00704D0D4E9041290A003F0E7F8BDE880
:102B4000104092A003F0E2B810BD70B50646002E0A
:102B500014D08FA0B16F03F0D9F893A003F0D6F88A
:102B6000002506EB8500C46F03E02046FFF798FFC1
:102B70006469002CF9D16D1C0F2DF2DB70BD70B5AE
:102B80000446002C1BD098A003F0C0F886A003F0E8
:102B9000BDF8A56A11E0A5F110040BE02046FFF78F
:102BA0007FFFE068C10804D020F00700044410341F
:102BB00000E00024002CF1D16D68002DEBD170BD38
:102BC00070B50546002D36D08BA003F09FF8D5E9EF
:102BD0000C2395A0A96B03F099F86CA003F096F86C
:102BE00098A003F093F80024A00703D114B167A0C4
:102BF00003F08CF805EB8400A11DC26BA0A003F0CC
:102C000085F8641C0F2CEFDB60A003F07FF8EC6A02
:102C1000002C10D0A0A003F079F8AEA003F076F855
:102C2000D4E90410421ABDE8704043015201490141
:102C30007DA003F06BB870BD10B502F007FB044631
:102C4000AF49097831B14FF4D872AEA14FF47A7020
:102C5000FFF7FEF8204602F0FDFA254C4FF0FF3258
:102C60001346206800F091FA48A003F04FF8B048EE
:102C700003F04CF8AFA0216803F048F82068FFF794
:102C80007EFF42A003F042F8AF4803F03FF820680F
:102C9000FFF75BFF3DA003F039F8AC4803F036F8CE
:102CA0002068FFF78DFF206800F0F0FA002010BDCB
:102CB0005B484541505D7C2020546F74616C5369C2
:102CC0007A65207C2020204672656553697A6520EC
:102CD0007C2020205573656453697A65207C202010
:102CE0004D696E46726565537A207C0D0A000000BE
:102CF000A00000202020202020207C2025313064CE
:102D0000207C2025313064207C2025313064207CDB
:102D10002025313064207C0D0A0000002570200041
:102D200021000000200000006672656520000000A0
:102D300075736564200000002025366C7520000046
:102D40002073656E74696E656C20000020253878EC
:102D500020000000203078252D3878200000000069
:102D60007072652D66726565205B2538705D3B006D
:102D70007072652D757365643B0000002066726596
:102D8000655B2538702C2538705D20000D0A000029
:102D9000667265656C697374206269746D61703AFE
:102DA00020307825780D0A00616464726573732C95
:102DB00020207374617420202073697A652020209C
:102DC0002020647965202020202063616C6C65726E
:102DD0002020207072652D73746174202020207073
:102DE0006F696E740D0A0000414C4C20424C4F43F9
:102DF0004B530D0A00000000202020202066726541
:102E00006520202020207C202020202075736564F0
:102E100020202020207C20202020206D61787573C8
:102E200065640D0A00000000202025313064202058
:102E30007C20202531306420207C20202531306406
:102E40000D0A00002D2D2D2D2D2D2D2D2D2D2D2D4F
:102E50002D2D2D2D2D6E756D626572206F66206192
:102E60006C6C6F632074696D65733A2D2D2D2D2D5B
:102E70002D2D2D2D2D2D2D2D2D2D2D2D0D0A00001F
:102E80005B325E253032645D2062797465733A206E
:102E90002535642020207C002D2D2D2D2D2D2D2D30
:102EA0002D2D2D2D2D2D2D2D2D66697820706F6FD8
:102EB0006C20696E666F726D6174696F6E3A2D2D4C
:102EC0002D2D2D2D2D2D2D2D2D2D2D2D2D2D2D0D52
:102ED0000A00000020202020206672656520202046
:102EE00020207C2020202020757365642020202055
:102EF000207C2020202020746F74616C0D0A00005B
:102F0000600000202E2E5C2E2E5C616C696F735C5D
:102F10006B65726E656C5C7268696E6F5C636F7214
:102F2000655C6B5F6D6D5F64656275672E63000045
:102F30004C670008675F6B6D6D5F68656164203D7D
:102F4000202538780D0A0000F46600089C66000809
:102F500010B50446002C1CD0E9B124606460002048
:102F60002073A1602061606184F8242002F06EF972
:102F70000246F54904F11C004B68436001604B6850
:102F800018604860104602F065F902206073002066
:102F900010BD062010BD062010BD0122D8E72DE986
:102FA000F0410F4690F874603546243010E0BC4282
:102FB00002D1616901600BE0204600F0BDF910B953
:102FC000206890F85B50AE4200D92E4604F1140000
:102FD0000468002CEBD13046BDE8F08110B5044602
:102FE0002046FFF7DCFF014694F87300884204D0C6
:102FF0002046BDE8104001F07EBA10BD70B5044611
:10300000002C0CD002F022F905460020CF490978A7
:1030100039B1284602F01EF94FF47A7070BD0620CF
:1030200070BD617B022904D0284602F013F9082004
:1030300070BD94F82410012904D0284602F00AF942
:10304000092070BD26466073206938B12146FFF71C
:10305000C5FF03E03068183800F0DDF9304600F0B5
:103060006BF90028F6D0D4E907010860D4E907100D
:103070004860284602F0EEF800F095FB002070BD95
:1030800070B506460D46002E10D02820FFF7C5FB70
:1030900004466CB1022229462046FFF759FF054637
:1030A00045B12046FFF7E8FB284670BD062070BDFD
:1030B000692070BD3460284670BD70B50446002C90
:1030C0000CD002F0C3F805460020A049097839B1B8
:1030D000284602F0BFF84FF47A7070BD062070BD2C
:1030E000617B022904D0284602F0B4F8082070BDA4
:1030F00094F82410022904D0284602F0ABF80920E5
:1031000070BD26466073206938B12146FFF766FF1F
:1031100003E03068183800F07EF9304600F00CF912
:103120000028F6D0D4E907010860D4E90710486008
:10313000284602F08FF800F036FB2046FFF79CFB94
:10314000002070BD70B50D462E46446A0AE0204648
:1031500000F0F2F810B9206890F85B50B54200D248
:103160002E466469002CF2D1304670BD0146886D50
:10317000427B022A08D1006991F8731090F87320FD
:103180008A4201D1002129E770472DE9F041044628
:1031900015461E46002C0FD06D48008804280DD01F
:1031A00002F054F807466948007848B1384602F002
:1031B00051F84FF47A700FE706200DE700200BE777
:1031C000607B022804D0384602F044F8082003E768
:1031D000DFF880812269D8F80000904217D1A069F9
:1031E000411C07D0401CA061384602F033F840F281
:1031F0008530F1E640F2863440F2291256A120468D
:10320000FEF726FE384602F025F82046E4E652B1E5
:1032100055EA060112D05A490978A9B1384602F098
:1032200019F8C820D8E62061416A61614462012032
:10323000A061384602F00EF80020CDE6384602F0D4
:1032400009F84FF4C870C7E690F8731092F873004D
:10325000814202D2104601F04EF92A4633462046FA
:10326000D8F8001000F0B5F8384601F0F3FF00F090
:103270009AFA01F0EBFF0546D8F8000000F003F9D8
:103280000446284601F0E6FF2046A5E670B5044650
:10329000002C10D02E48008804280ED001F0D6FF54
:1032A000054600262948007848B1284601F0D2FF9B
:1032B0004FF47A7070BD062070BD002070BD607B39
:1032C000022804D0284601F0C5FF082070BD21481F
:1032D00002682069824205D0284601F0BBFF4FF406
:1032E000617070BDA069401EA06128B1284601F040
:1032F000B1FF40F2853070BD21461046FFF76EFEEB
:10330000204600F019F828B12661284601F0A2FFF6
:10331000002070BD2668183E304600F033F8266164
:10332000706A606174620120A061284601F092FF1A
:1033300000F039FA002070BD0168814201D10120FE
:103340007047002070470000B0020020600000209D
:103350005C000020680000202E2E5C2E2E5C616C2C
:10336000696F735C6B65726E656C5C7268696E6FB9
:103370005C636F72655C6B5F6D757465782E63005E
:103380005F00002010B5044604F1180094F85410B2
:1033900002290ED0042916D0272259A10120FEF7B8
:1033A00057FD204601F0A3FB002084F85500A065DE
:1033B00010BD00F08EF821465B4800F09CFA012019
:1033C00084F85400EDE700F084F8032084F85400FA
:1033D000E7E770B505460C46A565D04370EA0300E3
:1033E00002D0204601F056FB022084F8540021460A
:1033F0004D4800F08AFA287B012805D0214628464E
:10340000BDE8704000F06BB804F118012846BDE833
:10341000704000F057B870B50446032594F8541076
:1034200004F1180002290ED0042916D0592234A123
:103430000120FEF70DFD204601F059FB84F85550A0
:103440000020A06570BD00F044F82146364800F029
:1034500052FA012084F85400EDE700F03AF884F8BD
:103460005450E8E710B50446A06D007B002809D150
:1034700004F1180000F02DF82146A06DBDE81040C1
:1034800000F02DB810BD10B590F8550000280ED0F2
:1034900001280ED002280FD0032810D04FF4CA7490
:1034A000802217A12046FEF7D3FC204610BD002045
:1034B00010BD40F2911010BD4FF4C97010BD40F224
:1034C000931010BD42684A60086042681160416014
:1034D0007047D0E90012116003C84160704730B4F2
:1034E0000246006806E090F85B3091F87340A34212
:1034F00002D800689042F6D130BC1831E2E70000F3
:103500002E2E5C2E2E5C616C696F735C6B65726E27
:10351000656C5C7268696E6F5C636F72655C6B5F33
:1035200070656E642E630000A80000200168816051
:10353000C1604268511A01610020704710B5029CB9
:1035400043610160114441608461FFF7EFFF002097
:1035500010BD2DE9F843044688461546002000902A
:10356000606900280AD00DB3681C1FD004272169A8
:10357000281D81421CD26A20BDE8F883A269206917
:10358000904201D26A20F7E76168E068884201D181
:103590002068E0604146E06802F00AF9E168A0694D
:1035A0000144E1602169081A20614EE00520E3E74B
:1035B00000956168E068884201D12068E060D4E944
:1035C000022090420FD30E1A042E0CD25EB1324666
:1035D000694602F0EDF8C6F104072068E060206952
:1035E000801B206100E000265FB10DEB06013A462A
:1035F000E06802F0DDF82069C01B2061E068384413
:10360000E0606168E068884201D12068E060D4E948
:10361000022090420ED30E1AAE420BD256B1324661
:10362000414602F0C5F8B044AD1B2068E060206957
:10363000801B20612A464146E06802F0B9F8E06844
:103640002844E0602069401B2061002094E7D0E915
:1036500000210069891A814201D1012070470020B0
:1036600070472DE9F843044688461746002000902D
:103670002046FFF7ECFF08B16B207DE76069A0B141
:10368000D4E90101814201D12168A160A168451AF4
:10369000042D20D2FDB12A46684602F089F8206840
:1036A000A06020692844206116E0D4E90110884216
:1036B00001D12068A0604046A269A16802F078F8B4
:1036C000A168A0690144A16021690144216107B199
:1036D0003860002050E70025042D0DD0C5F1040608
:1036E0000DEB05003246A16802F062F8A068304494
:1036F000A060206930442061009D3D60D4E9010153
:10370000814201D12168A160D4E9021291420DD910
:10371000461AAE420AD23246404602F049F8B04458
:10372000AD1B2068A0602069304420612A464046D5
:10373000A16802F03DF8A0682844A06020692844F0
:103740002061002018E74169012904D10269052A96
:1037500001D20120704729B901698069814201D2F3
:10376000012070470020704710B501F06FFDB94986
:10377000097821B101F06EFD4FF47A7010BDB64AA0
:103780001178C82903D301F065FDCA2010BD491C7A
:10379000117001F05FFD002010BD90F8001150F88D
:1037A00021001838704710B501F050FD0446002183
:1037B000A848007820B12046BDE8104001F04ABD7D
:1037C000A548007820B12046BDE8104001F042BD78
:1037D000A248FFF7E2FFA2490968814204D12046CE
:1037E000BDE8104001F036BD9E49086001F035FD8E
:1037F0002046BDE8104001F02DBD10B501F026FDBA
:103800009449097821B101F025FD4FF47A7010BD7B
:10381000914A117839B1491EC9B2117039B101F01C
:1038200019FDC82010BD01F015FDC92010BD01F023
:1038300011FDFFF7B8FF002010BD3E2180F80011F8
:103840000021002240F82120491CC9B23E29F9D3A9
:10385000704770B501F1180211F8733F40F823204A
:10386000126052600B7800F1F8025C0903F01F034C
:10387000C3F11F0652F824500123B3401D4342F800
:103880002450097890F80021914201D280F800116B
:1038900070BD70B505460C4694F8730000F0D1F881
:1038A00020B121462846BDE87040D2E794F8730065
:1038B00004F118010E4655F8200000F0BBF894F80A
:1038C000730045F8206070BD70B505460C4694F84D
:1038D000730000F0B6F820B121462846BDE87040DC
:1038E000B7E794F8730004F1180155F82000BDE81B
:1038F000704000F09FB85A4A91F87330126892F8FD
:1039000073209A4200D1DFE7C3E7F0B491F8732047
:1039100050F822301C68A3420DD001F11805AB42CB
:1039200001D140F82240D1E906021060C8698969D6
:103930004860F0BC7047002140F8221000F1F80305
:10394000511102F01F05C5F11F0653F82140012552
:10395000B540AC4343F8214090F800119142E8D1C2
:10396000002101E020311B1D1A68002AFAD01A68D4
:10397000130C01D112041031130E01D112020831BF
:10398000130F01D11201091D930F01D19200891C5F
:10399000002A00DB491C002902DB80F80011C8E77F
:1039A000F0BC4FF49F7230A10120FEF751BA91F89C
:1039B000731050F82120126840F82120704770B52C
:1039C00001F044FC05462648006890F8730023493E
:1039D00051F8204000F035F820B12846BDE870408D
:1039E00001F038BCA4F1180393F8710038B12068D5
:1039F000A04209D12846BDE8704001F02BBC284602
:103A0000BDE8704001F026BC186E08B1401E186673
:103A1000186E20B12846BDE8704001F01BBC194665
:103A20000E48FFF7C4FF586E18662846BDE8704080
:103A300001F010BC42684A60086042681160416051
:103A40007047064951F82000002801D00020704737
:103A500001207047600000205F000020A8000020C7
:103A600068000020640000202E2E5C2E2E5C616C0D
:103A7000696F735C6B65726E656C5C7268696E6FA2
:103A80005C636F72655C6B5F73636865642E630073
:103A900010B50446002C1CD0E9B12460646022619A
:103AA0006261A1600020207384F8203001F0CEFB19
:103AB0000246CE4904F118004B68436001604B6830
:103AC00018604860104601F0C5FB012060730020BB
:103AD00010BD062010BD062010BD0123D8E770B52B
:103AE0000446002C0CD001F0B1FB05460020C04973
:103AF000097839B1284601F0ADFB4FF47A7070BDFA
:103B0000062070BD617B012904D0284601F0A2FB8C
:103B1000082070BD94F82010012904D0284601F037
:103B200099FB092070BD2646607303E030681838A1
:103B3000FFF771FC304600F051F90028F6D0D4E9C7
:103B400006010860D4E906104860284601F082FBAF
:103B5000FFF729FE002070BD2DE9F04106460D4615
:103B60001746002E12D02420FEF757FE04467CB1E3
:103B700002233A4629462046FFF78AFF05464DB103
:103B80002046FEF779FE2846BDE8F0810620FBE7D7
:103B90006920F9E734602846F6E770B50446002C42
:103BA0000CD001F053FB054600209149097839B14A
:103BB000284601F04FFB4FF47A7070BD062070BDAF
:103BC000617B012904D0284601F044FB082070BD28
:103BD00094F82010022904D0284601F03BFB09206C
:103BE00070BD2646607303E030681838FFF713FC99
:103BF000304600F0F3F80028F6D0D4E9060108605A
:103C0000D4E906104860284601F024FBFFF7CBFDFD
:103C10002046FEF731FE002070BD70B504460E460A
:103C200001F014FB0546607B012804D0284601F012
:103C300011FB082070BD204600F0D0F898B1206933
:103C4000411C0AD0401C20616169884200D9606132
:103C5000284601F0FFFA002070BD284601F0FAFA6C
:103C60004FF4487070BD26B909E020681838FFF796
:103C700089FB204600F0B2F80028F6D003E0206867
:103C80001838FFF77FFB284601F0E4FAFFF78BFDB9
:103C9000002070BD002801D00021BEE7062070473B
:103CA000002801D00121B8E7062070472DE9F04136
:103CB000074614461D46002F0BD001F0C7FA0646F2
:103CC0004B48007838B1304601F0C4FA4FF47A70AE
:103CD0005AE7062058E7787B012804D0304601F0E7
:103CE000B9FA082050E7386930B1401E38613046D3
:103CF00001F0B0FA002047E754EA050007D03D483C
:103D0000007850B1304601F0A5FAC8203CE73046B3
:103D100001F0A0FA4FF4C87036E7DFF8DC802246E5
:103D20002B463846D8F80010FFF753FB304601F019
:103D300091FAFFF738FD01F089FA0546D8F800003E
:103D4000FFF7A1FB0446284601F084FA20461BE752
:103D500070B504460E46002C0BD001F077FA0546EC
:103D60002348007838B1284601F074FA4FF47A708D
:103D700070BD062070BD607B012804D0284601F08C
:103D800069FA082070BD206908B1266104E0204668
:103D900000F024F850B12661D4E90401884200D92A
:103DA0006061284601F056FA002070BD284601F0F7
:103DB00051FA40F2213070BD70B504460D46002C1A
:103DC00008D04DB101F042FA2169296001F042FAB0
:103DD000002070BD062070BD062070BD01688142C4
:103DE00001D101207047002070470000C002002070
:103DF000600000205F000020680000201B48006079
:103E0000406008300060406008300060406008306A
:103E1000006040600830006040601030006040602A
:103E200008380060406070472DE9F041104E30685E
:103E3000046900250F4F4FF4966801CCB84204D0B6
:103E40002E220DA14046FEF703F86D1CEDB2002DA9
:103E5000F3D030680068A04206D24046BDE8F04189
:103E6000332205A1FDF7F4BFBDE8F081A8020020D0
:103E700068000020AFBEADDE2E2E5C2E2E5C616C85
:103E8000696F735C6B65726E656C5C7268696E6F8E
:103E90005C636F72655C6B5F73746174732E630037
:103EA00000B587B04C49042008804C48FFF7C5FC9A
:103EB00000F0ECFDFFF7A2FFFEF740FB4848006072
:103EC0004060002247A14948FFF707FEFDF77FFF4A
:103ED00001204749CDE904102022464BCDE90232AA
:103EE000002100910A4601913D2343A1454800F07D
:103EF00035F901F070F907B0002000BD10B5364C5F
:103F00002088042801D0032010BD00213348FFF78A
:103F100044FC3D4908603D4908600320208001F0D1
:103F2000A6F9012010BD10B501F090F938490A78C2
:103F3000521C0A7001F08EF9002010BD10B501F07E
:103F400085F904460021324A1078401EC0B2107034
:103F500020B12046BDE8104001F07CB92D48007822
:103F600020B12046BDE8104001F074B91B48FFF7AE
:103F700014FC26490968814204D12046BDE810405E
:103F800001F068B92049086001F06CF92046BDE8ED
:103F9000104001F05FB970B51F4C01F057F921686E
:103FA0002246914205D101F055F94FF0FF3001460C
:103FB00070BDD1E902351949D1E900219C1A65EBA0
:103FC000010501F047F92046294670BD40F20D7009
:103FD000704742F6E06070475C000020A8000020B7
:103FE000980000207265735F73656D00880700207C
:103FF000611E00082802002069646C655F746173AB
:104000006B000000B0010020640000206800002068
:10401000600000205F000020800000207800002069
:104020002DE9FF5F0EAEDDF854B096E8C0060446F9
:1040300098460025002C11D0019888B1129888B1BB
:10404000B9F1000F10D0BAF1000F0FD0B8F13E0F48
:104050000FD340F2311004B0BDE8F09F0620FAE71C
:104060000620F8E70620F6E70620F4E74FF49670FE
:10407000F1E701F0EBF8F749097821B101F0EAF82E
:104080004FF47A70E7E7B8F13D0F0BD1F24911F820
:104090000B2022B101F0DEF84FF49A70DBE7012229
:1040A00001F80B2001F0D6F87821204601F099FBA9
:1040B00056EA070001D0666601E032206066606E55
:1040C0002066012084F87100139911B184F854001E
:1040D00004E0032184F8541084F82000C4F8109000
:1040E00048464FEA8A0101F07CFB0198606084F841
:1040F000738084F87480C4F814A0149884F8750050
:1041000084F872B02069D54902C06D1CEDB2002D53
:10411000FAD051464846129B029A01F0E7F8206017
:1041200001F094F8054604F12801CD4800F09CFC0C
:10413000139838B12146CB48FFF7C6FBCA48008820
:10414000032804D0284601F085F8002083E728469C
:1041500001F080F8FFF727FB00207CE72DE9F0470E
:104160008AB0DDE9158CDDE91359179F129C0026F2
:104170004FF0010ACDE906A6CDE9038C8DE83002A7
:1041800005970896FFF74CFF0AB0BDE8F0872DE9C8
:10419000FF4F89B016ACDDF86CB094E830060646E7
:1041A000002E30D0B9F1000F2FD04FEA8900FEF772
:1041B00034FB074638002AD07820FEF72EFB8046D5
:1041C0005FEA080025D0C6F800801C991A98CDE94E
:1041D000070B8DE8B0060222CDE905120AA9404678
:1041E0000EC9FFF71DFF0446C4B1042C16D0384693
:1041F000FEF742FB4046FEF73FFB002030602046C2
:104200000DB0BDE8F08F0620FAE70520F8E7692039
:10421000F6E73846FEF730FB6920F1E72046EFE786
:104220002DE9F04188B00EAC129F94E830110026C1
:10423000CDE903C68DE83001CDE90567FFF7A7FF9B
:1042400008B0BDE8F0812DE9F04104460D4654EA7E
:1042500005000BD000F0FAFF06467E48007838B122
:10426000304600F0F7FF4FF47A70EAE70520E8E700
:104270007E48007820B1304600F0ECFFC820E0E72F
:104280007B4F0521386880F8541022462B4600F0F9
:1042900001FC74483968FFF738FB304600F0DAFF5C
:1042A000FFF781FA00F0D2FF05463868FFF7EBF818
:1042B0000446284600F0CEFF2046C2E710B500F0C5
:1042C000C5FF04466A4967480968FFF770FB204646
:1042D00000F0C0FFFFF767FA002010BD10B500F036
:1042E000B5FF63490C6800F0B5FF204610BD70B5FE
:1042F000044600F0ABFF05465D480068A04207D1C8
:104300005A48007820B1284600F0A4FFC82070BDAC
:1043100094F85410012007292FD2DFE801F02E0471
:10432000141A1A0E1A0084F82000032084F854008E
:1043300021464C48FFF7E9FA12E084F820000620F5
:1043400084F854000CE084F82000042084F8540021
:1043500006E094F82000FF2809D0401C84F82000D3
:10436000284600F077FFFFF71EFA002070BD2846B0
:1043700000F070FF4FF4987070BD284600F06AFF9F
:1043800040F2331070BD002804D090F873103D291E
:1043900002D0ACE70620704740F22F10704770B58E
:1043A000044600F053FF054694F85400072836D21F
:1043B000DFE800F03504040A24041900284600F060
:1043C00049FF40F22D1070BD94F82000401EC0B28D
:1043D00084F82000E0B9012084F8540021462148E7
:1043E000FFF789FA14E094F82000401EC0B284F868
:1043F000200068B9052084F8540009E094F82000F2
:10440000401EC0B284F8200010B9022084F8540085
:10441000284600F01FFFFFF7C6F9002070BD2846B0
:1044200000F018FF40F2331070BD002800D0B6E74E
:10443000062070470022002807D041B190F8543080
:10444000072B17D00069001D18E0062070470620D2
:1044500070470000600000205E000020AFBEADDEAF
:10446000A8020020A80000205C0000205F000020BF
:104470006800002040F23310EAE7521C08C8002B05
:10448000FBD00A600020E3E770B504460D4600F05B
:10449000DDFE0646FE4814B10168A14203D104685E
:1044A000FCF745FE00E0206890B1D4E9041201EB6E
:1044B0008202824217D2304600F0CCFE4FF496645E
:1044C00040F2F112F3A12046FDF7C2FC204670BD78
:1044D000304600F0BFFE40F2EB12EEA10220FDF7E5
:1044E000B7FC022070BD101A80082860304600F02A
:1044F000B1FE002070BD2DE9F04104460D4694F850
:104500007370AF4251D094F85400072843D2DFE8CB
:1045100000F042041D191D1919002146E748FFF754
:10452000F4F984F87350DA480068A04204D12146B7
:10453000E248FFF7AEF903E02146E048FFF7C4F98F
:10454000002433E084F8735000242FE084F8735083
:104550002046FEF787FFA06D417B022901D0002491
:1045600024E0066994F8731096F87300884201D924
:1045700034461BE0B8420CD100213046FEF70FFD57
:10458000054696F87310A94201D034460EE0002487
:104590000CE000240AE040F233144FF40F72BDA186
:1045A0002046FDF755FC20464BE60024002CA6D102
:1045B000002046E62DE9F04104460E461546002C43
:1045C00008D04DB194F873004FF499713D2805D38C
:1045D000084636E6062034E6062032E63D2E01D3B4
:1045E00008462EE694F8540007280BD000F02EFE63
:1045F0000746B348007840B1384600F02BFE4FF430
:104600007A701EE640F233101BE631462046FEF774
:1046100099FD84F87460014694F873002870204670
:10462000FFF769FF044624B1384600F013FE204628
:1046300007E6384600F00EFEFFF7B5F8002000E66A
:104640002DE9F0410446002C0CD000F0FFFD064699
:1046500000279B48007838B1304600F0FBFD4FF44E
:104660007A70EEE50620ECE594F854000125072861
:1046700031D2DFE800F030291604160B0B0084F865
:10468000545021468D48FFF736F91DE0204600F0D2
:104690002EFA21468948FFF72EF904F8545F657019
:1046A00012E0204600F023FA04F1180000F0E3F9CC
:1046B00021468248FFF71FF984F8545084F855507A
:1046C0002046FEF753FDA765304600F0C3FDFFF717
:1046D0006AF80020B5E5304600F0BCFD40F233102A
:1046E000AFE570B5466A09E066692568A54201D163
:1046F000012000E0002020B1002020613400F3D12F
:1047000070BD183D2846FEF73DFE2561686A606170
:104710006C62F3E770B5044600F098FD0546684802
:10472000007828B1284600F095FD4FF47A7070BDEE
:10473000574804B9046894F873103D2908D094F8D8
:10474000751001290AD0284600F084FD092070BDAB
:10475000284600F07FFD4FF4977070BD0068A042BE
:1047600007D15848007820B1284600F073FDC820D2
:1047700070BD2046FFF7B5FF94F8540007260728C0
:104780002CD2DFE800F02B04140B140E0E0021468F
:104790004A48FFF7BAF884F8546014E084F854608B
:1047A00011E0204600F0A3F984F854600BE02046A5
:1047B00000F09DF904F1180000F05DF984F85460F0
:1047C0002046FEF7D3FC04F1280000F054F92846F7
:1047D00000F040FDFEF7E7FF002070BD284600F026
:1047E00039FD40F2331070BD2DE9F041044600F070
:1047F0002DFD064600203249097829B1304600F0E7
:1048000029FD4FF47A701CE5214904B90C6894F82D
:1048100073203D2A08D094F87520022A0AD0304629
:1048200000F018FD09200CE5304600F013FD4FF4B0
:10483000977006E50968234FA14206D1397821B166
:10484000304600F007FDC820FBE494F85410072917
:1048500047D025692D1D28603878401C387005F137
:104860001401194800F000F920696860AC602868FC
:10487000801C28601548FFF70DFA05463878401E61
:104880003870280033D0304600F0E4FC20E000000F
:10489000680000202E2E5C2E2E5C616C696F735CAC
:1048A0006B65726E656C5C7268696E6F5C636F726B
:1048B000655C6B5F7461736B2E630000A800002061
:1048C000600000205F000020980000208807002082
:1048D00040F27B32AFF244010220FDF7B9FA2846DC
:1048E000AFE4304600F0B6FC40F23310A9E42046B5
:1048F000FFF7F7FE94F854000725072821D2DFE8D8
:1049000000F02004140B140E0E0021465D48FEF743
:10491000FCFF84F8545014E084F8545011E0204611
:1049200000F0E5F884F854500BE0204600F0DFF882
:1049300004F1180000F09FF884F854502046FEF768
:1049400015FC04F1280000F096F8304600F082FCD7
:10495000FEF729FF002074E470B504460D46002CD4
:1049600009D000F073FC4849097831B100F072FCBD
:104970004FF47A7070BD062070BD0DB1656601E020
:1049800032216166616E216600F064FC002070BD1A
:1049900070B505460C46002D04D02CB1012C03D077
:1049A000CB2070BD062070BD00F050FC3649097860
:1049B00021B100F04FFC4FF47A7070BD85F8714062
:1049C00000F048FC002070BD70B504460D46002C78
:1049D0000AD05DB100F03AFC2B49097841B100F0F2
:1049E00039FC4FF47A7070BD062070BD062070BD92
:1049F00094F87110297000F02DFC002070BD70B586
:104A000004460D461646002C03D0022D03D3052084
:104A100070BD062070BD00F019FC04EB85018E60AE
:104A200000F018FC002070BD002804D02AB1022933
:104A300005D305200CE506200AE5062008E500EB75
:104A4000810080681060002002E510B5FFF746FC89
:104A500090F87500022803D0BDE81040002059E608
:104A6000BDE810400020BFE642684A600860426826
:104A700011604160ECE4D0E90012116003C84160AC
:104A8000E6E40000A8000020600000205B48006011
:104A900040607047F0B552EA030127D0584930C949
:104AA000A61845EB0301C0E90E61C0E91023DFF849
:104AB0004CC1D0E91012DCF800300BE0A3F1300655
:104AC000D6E90E763F1B66EB0506CF1B72EB06069A
:104AD00002D31B686345F1D100F130075968796052
:104AE0003B6059680F605F60C0F848C0F0BD816CE2
:104AF000002907D0D0E90C121160D0E90C215160D7
:104B00000021816470472DE9F84F04460D4600F0FE
:104B10009DFB0090DFF8E8B0DBE90010091968415F
:104B2000CBE90010354F3C684FF001084FF0020907
:104B300000254FF0030ABC425AD054F83069D4E93A
:104B40000E01DBE90023801A61EB03010023181A30
:104B500073EB01024CDB94F85400022818D00428AF
:104B60002CD0052808D006283AD0722225A1012091
:104B7000FDF76EF93446DEE784F8555084F854802A
:104B80002046FFF7B4FF21462848FEF7B4FEF1E7C0
:104B90002046FFF7ACFFD4E906010860D4E906100F
:104BA000486021462148FEF7A6FE84F8559084F817
:104BB00054802046FEF7DAFAA565DBE72046FFF7CA
:104BC00096FFD4E906010860D4E90610486084F82D
:104BD000559084F854A02046FEF7C8FAA565C9E7A9
:104BE00084F854A084F855502046FFF780FFC1E7B1
:104BF0000098BDE8F84F00F02DBB000080000020B9
:104C0000780000202E2E5C2E2E5C616C696F735C28
:104C10006B65726E656C5C7268696E6F5C636F72F7
:104C2000655C6B5F7469636B2E630000A8000020F5
:104C300010B501200021FFF766FFBDE81040FEF728
:104C4000BEBE70B500F002FB0146284830C80846D9
:104C500000F000FB2046294670BD70B5FFF7F1FF5C
:104C60004FF47A720346A3FB020501FB02510024B4
:104C700003FB0411234600F06FFB70BD2DE9F041EA
:104C80004FF47A752A46002300F066FB92B22B4659
:104C90000446A4FB030701FB0371002604FB061175
:104CA00000231A442B465A43B2FBF5F2101841EB8D
:104CB000E271BDE8F0812DE9F0414FF47A752A46A2
:104CC000002300F049FB2B460446A4FB030701FB2D
:104CD0000371002604FB061100231A442B465A4395
:104CE000B2FBF5F3181841F10001E2E7780000206B
:104CF000F0B5D1E908230668F74D30CD0BE0D6E9D1
:104D000006C7BCEB040C67EB0507B2EB0C0C73EBAE
:104D1000070702D336688642F1D1706848600E609A
:104D2000706801607160F0BD8168002907D0D0E92A
:104D300000121160D0E900215160002181607047AC
:104D400000B587B000280AD0009001208DF804003B
:104D500018226946E148FCF724FF07B000BD062091
:104D6000FBE72DE9F04708ABDDF8389093E87811C0
:104D7000002700280CD069B172B153EA040A0DD0A3
:104D800013F1010A54F1004A0AD30520BDE8F08767
:104D90000620FBE70620F9E70620F7E70520F5E700
:104DA00015F1010A56F1004A01D30520EEE7C16072
:104DB0000261C0E90A34C0E90C5600220262426274
:104DC0008261C261002180F83D10816080F83E90D0
:104DD000C0F8148000604060052180F83C10BCF1F0
:104DE000000F02D0FFF7ACFF07463846CEE72DE9AB
:104DF000F04188B00EAB139F93E878108DE87810DF
:104E00004FF00108CDE90578FFF7ABFF08B0BDE82A
:104E1000F08100B587B0002809D0009006208DF8F9
:104E2000040018226946AD48FCF7BBFE95E7062052
:104E300093E72DE9FF4F87B014AC814694E8F00C5E
:104E4000B9F1000F18D04020FDF7E7FC80465FEA7B
:104E5000080013D08DE8F00C0220DDE9081206905E
:104E60004046FFF77EFF044654B14046FDF704FD7F
:104E700020460BB0BDE8F08F0620FAE76920F8E77E
:104E8000C9F800802046F4E700B587B0002809D0B3
:104E9000009007208DF80400182269468F48FCF71F
:104EA00080FE5AE7062058E700B587B0002809D0F1
:104EB000009002208DF80400182269468748FCF70C
:104EC00070FE4AE7062048E730B587B0DDE90A45BD
:104ED000002809D052EA030108D0511C53F10041C7
:104EE00006D3052007B030BD0620FBE70520F9E713
:104EF000611C55F1004101D30520F3E70090CDE995
:104F00000223CDE9044503208DF8040018226946E8
:104F10007248FCF746FEE5E700B587B000280AD0E6
:104F20000090049104208DF80400182269466B4813
:104F3000FCF737FE11E706200FE700B587B0002821
:104F40000AD00090049105208DF8040018226946CB
:104F50006248FCF726FE00E70620FEE670B5604ECC
:104F600034685D4D2AE0D4E90631D5E90002181A0B
:104F700061EB02010023181A73EB010220DBD4E974
:104F80000421204690472046FFF7CEFED4E90C01CD
:104F900050EA01020ED0C4E90801D5E900238218C5
:104FA0005941C4E906214E49A16021464C48FFF70A
:104FB0009FFE02E0002184F83D102468B442D2D163
:104FC00070BD70B5024614680025082972D2DFE86A
:104FD00001F07104223044714F5E94F83C000528C2
:104FE00018D194F83D00012814D03B48D4E90A3187
:104FF000D0E900209A184141C4E90621D4E90A0108
:10500000C4E908013648A0602146FFF771FE01207F
:1050100084F83D0070BD94F83C000528FAD194F85E
:105020003D000028F6D02046FFF77EFE84F83D5074
:1050300070BDD2E9020150EA0103F9D094F83C3086
:10504000052BF5D194F83D30002BF1D1C4E90A01CC
:10505000D2E90401C4E90C0170BD94F83C000528B4
:10506000FAD194F83D000028F6D11069606170BD56
:1050700094F83C000528FAD194F83D000028F6D1B8
:1050800094F83E000128F2D184F83C5070BD94F8A9
:105090003C000528FAD194F83D000028F6D194F898
:1050A0003E000228F2D184F83C502046BDE8704012
:1050B000FDF7E2BBBDE8704040F2671209A1012094
:1050C000FCF7C6BE10B50446217905291ED020463E
:1050D000BDE8104075E70000900000205805002052
:1050E000880000202E2E5C2E2E5C616C696F735C34
:1050F0006B65726E656C5C7268696E6F5C636F7213
:10510000655C6B5F74696D65722E630002212046D9
:10511000FFF757FF04212046FFF753FF2046BDE865
:10512000104001214DE78AB03A4C4FF0FF3804AEF1
:1051300003ADCDE90065424613463748FCF739FD1B
:105140000746FFF77EFD57B14FF4C672AFF26C0110
:105150000120FCF77DFE04A8FFF7B4FF31E0C4E9AD
:105160000001F8E7FFF76DFDD7E90623121A63EB9C
:1051700001034FF0000C6746BCEB020C9F411CDAA8
:10518000CDE900652448FCF714FD0746FFF759FDFB
:10519000B7F5C97F08D057B14FF4D072AFF2BC0158
:1051A0000120FCF755FE0AE0C4E9000107E0C4E96C
:1051B000000104A8FFF786FF01E0C4E90001FFF742
:1051C000CDFE16480768874201D1012000E000208B
:1051D0000028AED1C6E700B587B010480060406037
:1051E0001420009018230E4A0EA10B48FCF7B4FBC4
:1051F00001200F49CDE9041080220E4BCDE9023287
:10520000002100910A46019105230BA10D48FEF7EC
:10521000A5FFA2E59000002058050020880000208E
:10522000A805002074696D65725F7175657565000C
:10523000275100085803002074696D65725F74611E
:10524000736B0000E002002070477047EFF310809E
:1052500072B6704780F3108870471E484FF0805137
:10526000016070471B484FF08051016070471A4839
:105270004FF0FF01017019484FF0FF01017000204D
:1052800080F3098813484FF08051016062B6FEE751
:1052900072B6EFF30980002815D0243880E8F04F6B
:1052A0000F4909680860FEF7BFFD0D480D490A68FF
:1052B0000260106890E8F04F243080F309884EF0C7
:1052C000040E62B6704708480068006880F30888DA
:1052D000EBE7000004ED00E022ED00E023ED00E04C
:1052E000680000206400002008ED00E000EB810071
:1052F00020F0070040384FF08071C1638363154987
:1053000041634FF0123101634FF00331C1624FF03E
:10531000023181624910416202626FF00201C16193
:105320004FF0113181614FF0103141614FF009317F
:1053300001614FF00831C1604FF0073181604FF0DB
:10534000063141604FF0053140F804194FF0043147
:10535000016070474B4A00082DE9F05F05460020C8
:1053600092469B4688460646814640241BE02846D6
:1053700041464746224600F07FFA53465A46C01A35
:10538000914110D311461846224600F066FA2D1AB4
:1053900067EB01084F4622460120002100F05DFA2C
:1053A00017EB00094E41201EA4F10104DFDC484642
:1053B00031462A464346BDE8F09F2DE9F0410024DE
:1053C000061B254671F1000605DA01240027D0EB03
:1053D000070067EB0101161E73F1000605DA0027CE
:1053E000D2EB0702012567EB0303FFF7B5FF864603
:1053F0000E4617469C46AC4204D00025D0EB050E65
:1054000065EB010624B10020D2EB000760EB030C32
:10541000704631463A466346BDE8F08170B50546B0
:1054200001B90721541A241DB4F5B67F09DD286897
:1054300000F036F9A04204DC2868401C28600120F6
:1054400070BD002C05DA2868401E286000F028F99D
:105450000444072094FBF0F0401C70BD2DE9F04F90
:1054600089B01D468A468046002401AF4FF0070BE5
:105470000192079057F8241011F8010B47F82410F7
:1054800048B125280DD0BAF1010F06D908F8010B53
:10549000AAF1010A5CE0641E5AE0002009B0BDE8F0
:1054A000F08F11F8010B47F824100028F3D00226E2
:1054B0004FF030095A284BD020DC4D2873D014DC33
:1054C000442871D008DC2528DDD041282AD0422884
:1054D0002ED043283CD130E0462847D0472857D02B
:1054E000482862D0492833D161E0523808282FD2A9
:1054F000DFE800F0787AA6838A97A6A86138192891
:1055000026D2DFE800F00D1318202E253513255C78
:10551000252560642566256D257375258B9BA00068
:105520006AA000E070A0A9690091B4E07DA000E04D
:1055300088482969F8E788A007E06969642091FB39
:10554000F0F0133082E0E86880E0641C47F8240043
:10555000002C8FDA002088F800000799A8EB0100E2
:105560009CE7E8684FF02009009070E07EA0ECE72F
:10557000686900F26C700090D5E906126846FFF782
:105580004DFF0099642091FBF0F200FB12105DE0EA
:105590006869042600F26C700090D5E9061268462E
:1055A000FFF73CFF53E010E048E0A8684EE0A86831
:1055B0000C21173090FBF1F201FB120001E0E869C9
:1055C0000326401C42E02869FBE768683EE069A0CA
:1055D000BBE7A8680C2801DA67A0B6E767A0B4E7C4
:1055E00067A0B2E769A0B0E728682FE069A0ACE740
:1055F000A869012608BB072028E0D5E90610401A53
:10560000C01D90FBFBF021E0686900F26C70009017
:10561000D5E906126846FFF701FF17E00126A869E1
:1056200014E0A9695846891D91FBF0F20BFB121199
:10563000EA69511AC91D91FBFBF007E056A084E707
:1056400058A082E70426686900F26C70009000217F
:105650008DF8181006A80A2113E0009A92FBF1F3C6
:1056600001FB1322303200F8012D009A92FBF1F277
:10567000009232B901E000F8019D321EA6F1010648
:10568000F9DC321EA6F10106E7DC5EE710F8011B2B
:105690000029FBD100994A1E00920029F6DC54E74C
:1056A00081070CD1642190FBF1F201FB120151B989
:1056B0004FF4C87190FBF1F201FB120018B1002009
:1056C00000F26D1070470120FAE7000053756E007C
:1056D0004D6F6E0054756500576564005468750021
:1056E000467269005361740053756E646179004DB0
:1056F0006F6E6461790054756573646179005765F4
:10570000646E65736461790054687572736461795D
:1057100000467269646179005361747572646179DD
:10572000000000004A616E00466562004D61720033
:10573000417072004D6179004A756E004A756C00C7
:1057400041756700536570004F6374004E6F7600BB
:1057500044656300446600082561202562202565B4
:10576000202554202559000025592D256D2D25640F
:10577000000000000A000000414D0000504D0000F4
:1057800025493A254D3A25532025700025483A25CC
:105790004D00000009000000256D2F25642F25799C
:1057A0000000000025483A254D3A2553000000002E
:1057B00040EA01039B0703D009E008C9121F08C093
:1057C000042AFAD203E011F8013B00F8013B521E13
:1057D000F9D27047D2B201E000F8012B491EFBD28A
:1057E00070470022F6E710B513460A4604461946EC
:1057F000FFF7F0FF204610BD421C10F8011B0029E6
:10580000FBD1801A704710B5044600E0401C0378B5
:10581000002BFBD100E0401C521E04D311F8013BC9
:105820000370002BF7D100210170204610BD30B568
:105830000B46014600202022012409E021FA02F54E
:105840009D4205D303FA02F5491B04FA02F52844E8
:10585000151EA2F10102F1DC30BD202A04DB203A42
:1058600000FA02F1002070479140C2F1200320FAB3
:1058700003F3194390407047202A04DB203A21FAB1
:1058800002F00021704721FA02F3D040C2F1200259
:1058900091400843194670472DE9FE4F804681EA42
:1058A0000300C00F0C46009021F0004123F000459A
:1058B000B8EB0200A94105D24046214690461C465D
:1058C0000B46024623F00040104347D0270DC7F394
:1058D0000A00C3F30A510290401A019040286BDA83
:1058E000C3F3130040F4801B0098924620B10023BC
:1058F000D2EB030A63EB0B0B01985946C0F140024F
:105900005046FFF7AAFF06460D4650465946019AF3
:1059100000F08CF910EB08006141002487EA115275
:1059200084EAE7731A4340D0009A62B3019A012ACD
:105930004FEA075215DC001B61EB02014FF00042F9
:1059400002EA0752CDE90042001C41F580113246BF
:105950002B4600F08CF903B0BDE8F08F404621469D
:10596000F9E7001B61EB0201001C41F580130018F0
:105970005B412018A2F5001747EB030140EAD57000
:10598000B6196D4111E06D084FEA360645EAC0755B
:105990004FEA0752001B61EB0201001C41F5801128
:1059A00049084FEA30000019514132462B4603B0F6
:1059B000BDE8F04F00F04CB90098012240000023F0
:1059C000D0EB020263EBE073009821464FEAE074EB
:1059D000B8EB000061EB0401E9E783F000435BE70B
:1059E00081F0004158E72DE9FE4F81EA030404F0FD
:1059F000004421F0004100944FF0000B23F00043DD
:105A000050EA01045ED052EA03045BD0C3F30A54A7
:105A1000C1F30A552C44A4F2F3340194A0FB0254C0
:105A2000C1F3130141F48011C3F3130343F4801352
:105A300001FB024400FB034E840A970A44EA8154A6
:105A400047EA8357A4FB076802958D0A05FB078583
:105A50004FEA932C04FB0C542705029D4FEA06588D
:105A600047EA1637B5EB08056EEB070C870E920E6A
:105A700047EA811742EA8312A7FB0201B6EB0B014A
:105A800064EB00042B0D43EA0C335E1844EB1C500E
:105A9000DA465146E7FB0201C5F313044FEA0B3324
:105AA00043EA14534FEA0432019C43EA0603A4F18B
:105AB0000C040294009CCDE900B400F0D8F803B0C7
:105AC000BDE8F08F00200146F9E72DE9F04D81EAAD
:105AD000030404F0004B21F0004514464FF0000A87
